{
  "address": "0x996B7095a441C6A7efA7B42e3b789023dC0b455a",
  "abi": [
    {
      "inputs": [
        {
          "internalType": "bytes32",
          "name": "_merkleRoot",
          "type": "bytes32"
        },
        {
          "internalType": "bool",
          "name": "_cancelable",
          "type": "bool"
        }
      ],
      "stateMutability": "nonpayable",
      "type": "constructor"
    },
    {
      "anonymous": false,
      "inputs": [
        {
          "indexed": false,
          "internalType": "uint256",
          "name": "idx",
          "type": "uint256"
        },
        {
          "indexed": false,
          "internalType": "address",
          "name": "addr",
          "type": "address"
        },
        {
          "indexed": false,
          "internalType": "uint256",
          "name": "num",
          "type": "uint256"
        }
      ],
      "name": "Claimed",
      "type": "event"
    },
    {
      "anonymous": false,
      "inputs": [
        {
          "indexed": true,
          "internalType": "address",
          "name": "previousOwner",
          "type": "address"
        },
        {
          "indexed": true,
          "internalType": "address",
          "name": "newOwner",
          "type": "address"
        }
      ],
      "name": "OwnershipTransferred",
      "type": "event"
    },
    {
      "inputs": [],
      "name": "cancelable",
      "outputs": [
        {
          "internalType": "bool",
          "name": "",
          "type": "bool"
        }
      ],
      "stateMutability": "view",
      "type": "function"
    },
    {
      "inputs": [
        {
          "internalType": "uint256",
          "name": "index",
          "type": "uint256"
        },
        {
          "internalType": "address",
          "name": "account",
          "type": "address"
        },
        {
          "internalType": "uint256",
          "name": "amount",
          "type": "uint256"
        },
        {
          "internalType": "bytes32[]",
          "name": "merkleProof",
          "type": "bytes32[]"
        }
      ],
      "name": "claim",
      "outputs": [],
      "stateMutability": "nonpayable",
      "type": "function"
    },
    {
      "inputs": [],
      "name": "closeAirdrop",
      "outputs": [
        {
          "internalType": "bool",
          "name": "",
          "type": "bool"
        }
      ],
      "stateMutability": "nonpayable",
      "type": "function"
    },
    {
      "inputs": [
        {
          "internalType": "uint256",
          "name": "index",
          "type": "uint256"
        }
      ],
      "name": "isClaimed",
      "outputs": [
        {
          "internalType": "bool",
          "name": "",
          "type": "bool"
        }
      ],
      "stateMutability": "view",
      "type": "function"
    },
    {
      "inputs": [],
      "name": "merkleRoot",
      "outputs": [
        {
          "internalType": "bytes32",
          "name": "",
          "type": "bytes32"
        }
      ],
      "stateMutability": "view",
      "type": "function"
    },
    {
      "inputs": [],
      "name": "owner",
      "outputs": [
        {
          "internalType": "address",
          "name": "",
          "type": "address"
        }
      ],
      "stateMutability": "view",
      "type": "function"
    },
    {
      "inputs": [],
      "name": "renounceOwnership",
      "outputs": [],
      "stateMutability": "nonpayable",
      "type": "function"
    },
    {
      "inputs": [
        {
          "internalType": "bytes32",
          "name": "_merkleRoot",
          "type": "bytes32"
        }
      ],
      "name": "setRoot",
      "outputs": [],
      "stateMutability": "nonpayable",
      "type": "function"
    },
    {
      "inputs": [
        {
          "internalType": "address",
          "name": "newOwner",
          "type": "address"
        }
      ],
      "name": "transferOwnership",
      "outputs": [],
      "stateMutability": "nonpayable",
      "type": "function"
    },
    {
      "stateMutability": "payable",
      "type": "receive"
    }
  ],
  "transactionHash": "0x6441f9c191712fa79fb257eb01921b261d0bdd127b83443e77339aed5f1666cb",
  "args": [
    "0xbec8c268b4e943c1307defaf1ff762ff05bd361f6ad2a077ddf8a000c0633a9b",
    true
  ],
  "numDeployments": 1,
  "solcInputHash": "363080778ce611a4a3364b65cacfc053",
  "bytecode": "0x60806040523480156200001157600080fd5b50604051620015663803806200156683398181016040528101906200003791906200017a565b620000576200004b6200008060201b60201c565b6200008860201b60201c565b8160018190555080600260006101000a81548160ff021916908315150217905550505062000205565b600033905090565b60008060009054906101000a900473ffffffffffffffffffffffffffffffffffffffff169050816000806101000a81548173ffffffffffffffffffffffffffffffffffffffff021916908373ffffffffffffffffffffffffffffffffffffffff1602179055508173ffffffffffffffffffffffffffffffffffffffff168173ffffffffffffffffffffffffffffffffffffffff167f8be0079c531659141344cd1fd0a4f28419497f9722a3daafe3b4186f6b6457e060405160405180910390a35050565b6000815190506200015d81620001d1565b92915050565b6000815190506200017481620001eb565b92915050565b600080604083850312156200018e57600080fd5b60006200019e8582860162000163565b9250506020620001b1858286016200014c565b9150509250929050565b60008115159050919050565b6000819050919050565b620001dc81620001bb565b8114620001e857600080fd5b50565b620001f681620001c7565b81146200020257600080fd5b50565b61135180620002156000396000f3fe60806040526004361061008a5760003560e01c80638da5cb5b116100595780638da5cb5b1461012c5780639e34070f14610157578063dab5f34014610194578063eee56564146101bd578063f2fde38b146101e857610091565b806316212265146100965780632e7ba6ef146100c15780632eb4a7ab146100ea578063715018a61461011557610091565b3661009157005b600080fd5b3480156100a257600080fd5b506100ab610211565b6040516100b89190610e16565b60405180910390f35b3480156100cd57600080fd5b506100e860048036038101906100e39190610b41565b61033a565b005b3480156100f657600080fd5b506100ff610495565b60405161010c9190610e31565b60405180910390f35b34801561012157600080fd5b5061012a61049b565b005b34801561013857600080fd5b50610141610523565b60405161014e9190610dfb565b60405180910390f35b34801561016357600080fd5b5061017e60048036038101906101799190610b18565b61054c565b60405161018b9190610e16565b60405180910390f35b3480156101a057600080fd5b506101bb60048036038101906101b69190610aef565b6105a2565b005b3480156101c957600080fd5b506101d2610628565b6040516101df9190610e16565b60405180910390f35b3480156101f457600080fd5b5061020f600480360381019061020a9190610ac6565b61063b565b005b6000600260009054906101000a900460ff16610262576040517f08c379a000000000000000000000000000000000000000000000000000000000815260040161025990610f0c565b60405180910390fd5b61026a610733565b73ffffffffffffffffffffffffffffffffffffffff16610288610523565b73ffffffffffffffffffffffffffffffffffffffff16146102de576040517f08c379a00000000000000000000000000000000000000000000000000000000081526004016102d590610eec565b60405180910390fd5b6000471015610322576040517f08c379a000000000000000000000000000000000000000000000000000000000815260040161031990610e8c565b60405180910390fd5b61033361032d610523565b4761073b565b6001905090565b6103438561054c565b15610383576040517f08c379a000000000000000000000000000000000000000000000000000000000815260040161037a90610e6c565b60405180910390fd5b600085858560405160200161039a93929190610dbe565b604051602081830303815290604052805190602001209050610400838380806020026020016040519081016040528093929190818152602001838360200280828437600081840152601f19601f820116905080830192505050505050506001548361082f565b61043f576040517f08c379a000000000000000000000000000000000000000000000000000000000815260040161043690610f2c565b60405180910390fd5b61044886610846565b610452858561073b565b7f4ec90e965519d92681267467f775ada5bd214aa92c0dc93d90a5e880ce9ed02686868660405161048593929190610f4c565b60405180910390a1505050505050565b60015481565b6104a3610733565b73ffffffffffffffffffffffffffffffffffffffff166104c1610523565b73ffffffffffffffffffffffffffffffffffffffff1614610517576040517f08c379a000000000000000000000000000000000000000000000000000000000815260040161050e90610eec565b60405180910390fd5b61052160006108a0565b565b60008060009054906101000a900473ffffffffffffffffffffffffffffffffffffffff16905090565b6000806101008361055d9190610f9f565b905060006101008461056f91906110a3565b90506000600360008481526020019081526020016000205490506000826001901b90508081831614945050505050919050565b6105aa610733565b73ffffffffffffffffffffffffffffffffffffffff166105c8610523565b73ffffffffffffffffffffffffffffffffffffffff161461061e576040517f08c379a000000000000000000000000000000000000000000000000000000000815260040161061590610eec565b60405180910390fd5b8060018190555050565b600260009054906101000a900460ff1681565b610643610733565b73ffffffffffffffffffffffffffffffffffffffff16610661610523565b73ffffffffffffffffffffffffffffffffffffffff16146106b7576040517f08c379a00000000000000000000000000000000000000000000000000000000081526004016106ae90610eec565b60405180910390fd5b600073ffffffffffffffffffffffffffffffffffffffff168173ffffffffffffffffffffffffffffffffffffffff161415610727576040517f08c379a000000000000000000000000000000000000000000000000000000000815260040161071e90610e4c565b60405180910390fd5b610730816108a0565b50565b600033905090565b8047101561077e576040517f08c379a000000000000000000000000000000000000000000000000000000000815260040161077590610ecc565b60405180910390fd5b60008273ffffffffffffffffffffffffffffffffffffffff16826040516107a490610da9565b60006040518083038185875af1925050503d80600081146107e1576040519150601f19603f3d011682016040523d82523d6000602084013e6107e6565b606091505b505090508061082a576040517f08c379a000000000000000000000000000000000000000000000000000000000815260040161082190610eac565b60405180910390fd5b505050565b60008261083c8584610964565b1490509392505050565b6000610100826108569190610f9f565b905060006101008361086891906110a3565b9050806001901b6003600084815260200190815260200160002054176003600084815260200190815260200160002081905550505050565b60008060009054906101000a900473ffffffffffffffffffffffffffffffffffffffff169050816000806101000a81548173ffffffffffffffffffffffffffffffffffffffff021916908373ffffffffffffffffffffffffffffffffffffffff1602179055508173ffffffffffffffffffffffffffffffffffffffff168173ffffffffffffffffffffffffffffffffffffffff167f8be0079c531659141344cd1fd0a4f28419497f9722a3daafe3b4186f6b6457e060405160405180910390a35050565b60008082905060005b8451811015610a325760008582815181106109b1577f4e487b7100000000000000000000000000000000000000000000000000000000600052603260045260246000fd5b602002602001015190508083116109f25782816040516020016109d5929190610d7d565b604051602081830303815290604052805190602001209250610a1e565b8083604051602001610a05929190610d7d565b6040516020818303038152906040528051906020012092505b508080610a2a90611022565b91505061096d565b508091505092915050565b600081359050610a4c816112d6565b92915050565b60008083601f840112610a6457600080fd5b8235905067ffffffffffffffff811115610a7d57600080fd5b602083019150836020820283011115610a9557600080fd5b9250929050565b600081359050610aab816112ed565b92915050565b600081359050610ac081611304565b92915050565b600060208284031215610ad857600080fd5b6000610ae684828501610a3d565b91505092915050565b600060208284031215610b0157600080fd5b6000610b0f84828501610a9c565b91505092915050565b600060208284031215610b2a57600080fd5b6000610b3884828501610ab1565b91505092915050565b600080600080600060808688031215610b5957600080fd5b6000610b6788828901610ab1565b9550506020610b7888828901610a3d565b9450506040610b8988828901610ab1565b935050606086013567ffffffffffffffff811115610ba657600080fd5b610bb288828901610a52565b92509250509295509295909350565b610bca81610fd0565b82525050565b610be1610bdc82610fd0565b61106b565b82525050565b610bf081610fe2565b82525050565b610bff81610fee565b82525050565b610c16610c1182610fee565b61107d565b82525050565b6000610c29602683610f8e565b9150610c348261113f565b604082019050919050565b6000610c4c601583610f8e565b9150610c578261118e565b602082019050919050565b6000610c6f600a83610f8e565b9150610c7a826111b7565b602082019050919050565b6000610c92603a83610f8e565b9150610c9d826111e0565b604082019050919050565b6000610cb5601d83610f8e565b9150610cc08261122f565b602082019050919050565b6000610cd8602083610f8e565b9150610ce382611258565b602082019050919050565b6000610cfb601083610f8e565b9150610d0682611281565b602082019050919050565b6000610d1e600083610f83565b9150610d29826112aa565b600082019050919050565b6000610d41600e83610f8e565b9150610d4c826112ad565b602082019050919050565b610d6081611018565b82525050565b610d77610d7282611018565b611099565b82525050565b6000610d898285610c05565b602082019150610d998284610c05565b6020820191508190509392505050565b6000610db482610d11565b9150819050919050565b6000610dca8286610d66565b602082019150610dda8285610bd0565b601482019150610dea8284610d66565b602082019150819050949350505050565b6000602082019050610e106000830184610bc1565b92915050565b6000602082019050610e2b6000830184610be7565b92915050565b6000602082019050610e466000830184610bf6565b92915050565b60006020820190508181036000830152610e6581610c1c565b9050919050565b60006020820190508181036000830152610e8581610c3f565b9050919050565b60006020820190508181036000830152610ea581610c62565b9050919050565b60006020820190508181036000830152610ec581610c85565b9050919050565b60006020820190508181036000830152610ee581610ca8565b9050919050565b60006020820190508181036000830152610f0581610ccb565b9050919050565b60006020820190508181036000830152610f2581610cee565b9050919050565b60006020820190508181036000830152610f4581610d34565b9050919050565b6000606082019050610f616000830186610d57565b610f6e6020830185610bc1565b610f7b6040830184610d57565b949350505050565b600081905092915050565b600082825260208201905092915050565b6000610faa82611018565b9150610fb583611018565b925082610fc557610fc4611103565b5b828204905092915050565b6000610fdb82610ff8565b9050919050565b60008115159050919050565b6000819050919050565b600073ffffffffffffffffffffffffffffffffffffffff82169050919050565b6000819050919050565b600061102d82611018565b91507fffffffffffffffffffffffffffffffffffffffffffffffffffffffffffffffff8214156110605761105f6110d4565b5b600182019050919050565b600061107682611087565b9050919050565b6000819050919050565b600061109282611132565b9050919050565b6000819050919050565b60006110ae82611018565b91506110b983611018565b9250826110c9576110c8611103565b5b828206905092915050565b7f4e487b7100000000000000000000000000000000000000000000000000000000600052601160045260246000fd5b7f4e487b7100000000000000000000000000000000000000000000000000000000600052601260045260246000fd5b60008160601b9050919050565b7f4f776e61626c653a206e6577206f776e657220697320746865207a65726f206160008201527f6464726573730000000000000000000000000000000000000000000000000000602082015250565b7f44726f7020616c726561647920636c61696d65642e0000000000000000000000600082015250565b7f4e6f2062616c616e636500000000000000000000000000000000000000000000600082015250565b7f416464726573733a20756e61626c6520746f2073656e642076616c75652c207260008201527f6563697069656e74206d61792068617665207265766572746564000000000000602082015250565b7f416464726573733a20696e73756666696369656e742062616c616e6365000000600082015250565b7f4f776e61626c653a2063616c6c6572206973206e6f7420746865206f776e6572600082015250565b7f666f7262696464656e20616374696f6e00000000000000000000000000000000600082015250565b50565b7f496e76616c69642070726f6f662e000000000000000000000000000000000000600082015250565b6112df81610fd0565b81146112ea57600080fd5b50565b6112f681610fee565b811461130157600080fd5b50565b61130d81611018565b811461131857600080fd5b5056fea2646970667358221220ffbea7a6f0c9adaf6914e30a97be3d6b69dd604a451046fba32ffd231a6299dd64736f6c63430008040033",
  "devdoc": {
    "kind": "dev",
    "methods": {
      "owner()": {
        "details": "Returns the address of the current owner."
      },
      "renounceOwnership()": {
        "details": "Leaves the contract without owner. It will not be possible to call `onlyOwner` functions anymore. Can only be called by the current owner. NOTE: Renouncing ownership will leave the contract without an owner, thereby removing any functionality that is only available to the owner."
      },
      "transferOwnership(address)": {
        "details": "Transfers ownership of the contract to a new account (`newOwner`). Can only be called by the current owner."
      }
    },
    "version": 1
  },
  "userdoc": {
    "kind": "user",
    "methods": {},
    "version": 1
  },
  "storageLayout": {
    "storage": [
      {
        "astId": 7,
        "contract": "contracts/MerkleAirdrop.sol:MerkleAirdrop",
        "label": "_owner",
        "offset": 0,
        "slot": "0",
        "type": "t_address"
      },
      {
        "astId": 521,
        "contract": "contracts/MerkleAirdrop.sol:MerkleAirdrop",
        "label": "merkleRoot",
        "offset": 0,
        "slot": "1",
        "type": "t_bytes32"
      },
      {
        "astId": 523,
        "contract": "contracts/MerkleAirdrop.sol:MerkleAirdrop",
        "label": "cancelable",
        "offset": 0,
        "slot": "2",
        "type": "t_bool"
      },
      {
        "astId": 527,
        "contract": "contracts/MerkleAirdrop.sol:MerkleAirdrop",
        "label": "claimedBitMap",
        "offset": 0,
        "slot": "3",
        "type": "t_mapping(t_uint256,t_uint256)"
      }
    ],
    "types": {
      "t_address": {
        "encoding": "inplace",
        "label": "address",
        "numberOfBytes": "20"
      },
      "t_bool": {
        "encoding": "inplace",
        "label": "bool",
        "numberOfBytes": "1"
      },
      "t_bytes32": {
        "encoding": "inplace",
        "label": "bytes32",
        "numberOfBytes": "32"
      },
      "t_mapping(t_uint256,t_uint256)": {
        "encoding": "mapping",
        "key": "t_uint256",
        "label": "mapping(uint256 => uint256)",
        "numberOfBytes": "32",
        "value": "t_uint256"
      },
      "t_uint256": {
        "encoding": "inplace",
        "label": "uint256",
        "numberOfBytes": "32"
      }
    }
  }
}